:020000040800F2
:10000000A0070020CD010008671000085D0500086A
:1000100063100008990200084F1700080000000054
:1000200000000000000000000000000005120008B1
:100030009D02000800000000ED10000819130008E0
:10004000E7010008E7010008E7010008E7010008F0
:10005000E7010008E7010008E7010008E7010008E0
:10006000E7010008E7010008E7010008E7010008D0
:10007000E7010008E7010008E7010008E7010008C0
:10008000E7010008E7010008E7010008E7010008B0
:10009000E7010008E7010008E7010008E7010008A0
:1000A000E7010008E7010008E7010008E701000890
:1000B000E70100087D130008E7010008E7010008D8
:1000C000E7010008E7010008E7010008E701000870
:1000D000E70100080D150008E7010008E701000826
:1000E000E7010008E7010008E7010008E701000850
:1000F000E7010008E7010008E7010008E701000840
:10010000E7010008E7010008E7010008E70100082F
:10011000E7010008E7010008E7010008E70100081F
:10012000E7010008E7010008E7010008E70100080F
:1001300000F002F800F03AF80AA090E8000C8244BF
:100140008344AAF10107DA4501D100F02FF8AFF29C
:10015000090EBAE80F0013F0010F18BFFB1A43F0A5
:10016000010318472C3000004C300000103A24BF27
:1001700078C878C1FAD8520724BF30C830C144BF0C
:1001800004680C607047000000230024002500264E
:10019000103A28BF78C1FBD8520728BF30C148BFEA
:1001A0000B6070471FB51FBD10B510BD00F046F8BD
:1001B0001146FFF7F7FF01F0E7FE00F064F803B423
:1001C000FFF7F2FF03BC01F041FB00000948804744
:1001D00009480047FEE7FEE7FEE7FEE7FEE7FEE729
:1001E000FEE7FEE7FEE7FEE704480549054A064B41
:1001F000704700001D13000831010008A001002015
:10020000A0070020A0030020A00300207047704733
:1002100070477047704710B500F008F8006810BDCF
:1002200010B5044600F002F8046010BD00487047A5
:100230003C010020004870473C0100207546FFF754
:10024000F9FFAE4605006946534620F00700854693
:1002500018B020B5FFF7C8FFBDE820404FF00006FA
:100260004FF000074FF000084FF0000B21F007019E
:10027000AC46ACE8C009ACE8C009ACE8C009ACE8E1
:10028000C0098D46704710B50446AFF30080204684
:10029000BDE81040FFF793BF00BFFEE7704708B509
:1002A0000090009A0A70009A120A4A70009A120C82
:1002B0008A70009A120ECA7008BD2DE9F0410246FC
:1002C00000250026002000230024002791F803C009
:1002D0000CF00F0591F803C00CF0100CBCF1000FEE
:1002E00003D091F802C04CEA050591F800C0BCF1BA
:1002F000000F31D0146800202BE04FF0010C0CFAF5
:1003000000F3B1F800C00CEA03069E4220D183003E
:100310004FF00F0C0CFA03F7BC4305FA03FC4CEA50
:10032000040491F803C0BCF1280F06D14FF0010C72
:100330000CFA00FCC2F814C00AE091F803C0BCF14A
:10034000480F05D14FF0010C0CFA00FCC2F810C0A8
:10035000401C0828D1D31460B1F800C0BCF1FF0FD5
:1003600034DD546800202EE000F1080C4FF0010845
:1003700008FA0CF3B1F800C00CEA03069E4221D142
:1003800083004FF00F0C0CFA03F7BC4305FA03FC93
:100390004CEA040491F803C0BCF1280F05D100F128
:1003A000080C08FA0CF8C2F8148091F803C0BCF1EC
:1003B000480F07D100F1080C4FF0010808FA0CF8BB
:1003C000C2F81080401C0828CED35460BDE8F081EC
:1003D000F0B50A46002300240021002500F0004665
:1003E000B6F1004F02D11D4EF16901E01B4E71685C
:1003F000C0F3034583B200F44016B6F5401F08D1A0
:1004000021F07061154E766826F07066134F7E609D
:1004100012E000F48016B6F5801F06D1032606FA16
:1004200005F4A14341F0706106E0460D360103FA80
:1004300006F6B14341F0706122B1460D360103FA70
:1004400006F6314300F00046B6F1004F02D1034EEC
:10045000F16101E0014E7160F0BD0000000001405B
:10046000016170472DE9F04F89B082468B4605AA9D
:1004700006A907A800F060FB02AA03A904A800F0DF
:1004800033FBBDF91C0002F0AFF880464FF0663236
:100490002F4B01F051FF06464FF0C0422D4B02F0AA
:1004A000BBF8044600222C4B01F046FFCDE90001C9
:1004B00001F060FECAF80000BDF9180002F094F8DF
:1004C00080464FF06632224B01F036FF06464FF071
:1004D000C042204B02F0A0F8044600221E4B01F05F
:1004E0002BFFCDE9000101F045FECAF80400BDF97B
:1004F000140002F079F804464FF06632144B01F014
:100500001BFF06464FF0C042124B02F085F88046B2
:100510000022114B01F010FFCDE9000101F02AFE8D
:10052000CAF80800BDF9100002F0DEFBCBF80000AD
:10053000BDF90C0002F0D8FBCBF80400BDF90800AF
:1005400002F0D2FBCBF8080009B0BDE8F08F000044
:1005500066663040FB2109400080664000BFFEE730
:1005600007B5A4B024980068229024984068219090
:10057000249880682090259800681F9025984068EE
:100580001E90259880681D90FE480168006802F062
:10059000C3FB1590FC480168FA48006802F0BCFBF8
:1005A0001490FA480168F748006802F0B5FB139010
:1005B000F7480168F348006802F0AEFB1290F24879
:1005C0000168006802F0A8FB1190F0480168EE484D
:1005D000006802F0A1FB1090ED480168EA4800684D
:1005E00002F09AFB0F90E9480168006802F094FB62
:1005F0000E90E7480168E548006802F08DFB0D9019
:10060000E3480168006802F087FB0C901D990846DA
:1006100002F082FB0A901E99084602F07DFB0890CA
:100620001F99084602F078FB0790089902F0FAFA41
:1006300009900A9902F0F6FA0B9001F07FFC1690EF
:1006400016991F9802F068FB1F9016991E9802F0E9
:1006500063FB1E9016991D9802F05EFB1D90139986
:100660000F9802F02FFC4FF080410B9002F054FBEA
:100670001C900D99149802F0D5FA4FF080410B9020
:1006800002F04AFB1B901199159802F01BFC0A908E
:100690000E9902F017FC0B900C9902F0C3FA1A9015
:1006A0001B991D9802F038FB0B901A991E9802F0C6
:1006B00033FB0A900B9902F005FC19901A991F98C8
:1006C00002F02AFB0B90DDE91C1002F025FB0A90DA
:1006D0000B9902F0F7FB18901C991E9802F01CFB76
:1006E0000B901B991F9802F017FB0A900B9902F0D0
:1006F000E9FB1790A749199802F00EFBA6490A904A
:1007000002F00AFB0B90A54801680B9802F08AFAE8
:10071000A24908609F49189802F0FEFA9E490A9083
:1007200002F0FAFA0B909E4801680B9802F07AFAF0
:100730009B4908609749179802F0EEFA96490A908B
:1007400002F0EAFA0B90974801680B9802F06AFAF7
:10075000944908609448199902F0DEFA0A902299A7
:1007600002F060FA0B908D4801680B9802F05AFA7B
:1007700022908D48189902F0CFFA0A90219902F040
:1007800051FA0B90864801680B9802F04BFA2190C1
:100790008548179902F0C0FA0A90209902F042FAAF
:1007A0000B90804801680B9802F03CFA2090784842
:1007B0002099006802F0B0FA099074482199006805
:1007C00002F0AAFA07907048006880F00040059097
:1007D000229902F0A1FA0690079902F073FB0890A3
:1007E000099902F06FFB6C490A9002F095FA0B90A0
:1007F000644801680B9802F015FA62490860644881
:100800002199006802F088FA0990604820990068F0
:1008100002F082FA07905B482299006802F07CFAA5
:100820000690079902F0FEF90890099902F04AFB38
:1008300059490A9002F070FA0B90534801680B98DE
:1008400002F0F0F95049086051482299006802F01E
:1008500063FA09904C482099006802F05DFA07900D
:1008600048482199006802F057FA0690079902F06B
:1008700029FB0890099902F0D5F947490A9002F03E
:100880004BFA0B90414801680B9802F0CBF93F49B5
:1008900008603E482299006802F03EFA09903A4802
:1008A0002199006802F038FA0790364820990068CC
:1008B00002F032FA0690079902F0B4F9089009990B
:1008C00002F000FB34490A9002F026FA0B903048FF
:1008D00001680B9802F0A6F92D49086008460168E6
:1008E000006802F019FA0A9028480168006802F0CE
:1008F00013FA089024480168006802F00DFA069087
:1009000020480168006802F007FA0590069902F095
:1009100089F90790089902F085F909900A9902F07F
:1009200081F90B9001F00AFB1690164816990068A1
:1009300002F0F2F91349086013481699006802F0B2
:10094000EBF91149086011481699006802F0E4F9C2
:100950000E4908600E481699006802F0DDF90C494E
:10096000086013990F9802F0ADFA4FF0804104909F
:1009700002F0D2F9059002F029F9CDE9060100F064
:1009800067FF13E020000020240000202800002042
:100990002C0000200AD7A33B6F12833A30000020BE
:1009A0003400002038000020000070414FF0005259
:1009B000394BCDE9080101F02FFECDE90A0101F024
:1009C000D9FB269908601199159802F07BFA0190DD
:1009D0000E9902F077FA02900C9902F023F9039035
:1009E00002F0F4F8CDE906014FF08040149902F0CE
:1009F00093F902904FF080400D9902F08DF901902B
:100A0000029902F00FF9039002F0E0F8CDE9040139
:100A1000DDE9062301F064F94FF000521E4BCDE9E9
:100A2000080101F0F9FDCDE90A0101F0A3FB2699C7
:100A300048601199159802F0F5F801900E9902F0AE
:100A400041FA02900C9902F03DFA039002F0BEF8D0
:100A5000CDE906011299109802F0E4F84FF08041B8
:100A6000029002F059F9039002F0B0F8CDE90401C8
:100A7000DDE9062301F034F94FF00052064BCDE9D1
:100A8000080101F0C9FDCDE90A0101F073FB2699C7
:100A9000886027B000BD0000DCA54C4008B50121EE
:100AA000482000F035FB2020ADF8000010208DF824
:100AB000030003208DF8020069460948FFF7FDFB9B
:100AC00020210748FFF7CCFC2020ADF80000694644
:100AD0000448FFF7F2FB20210248FFF7C1FC08BDE4
:100AE000000C0140001801402DE9FC4104460D4670
:100AF00016466B4606223B21682000F00CFA07469A
:100B0000BFB99DF801009DF8001040EA012000B235
:100B100020809DF803009DF8021040EA012000B2F9
:100B200028809DF805009DF8041040EA012000B2DD
:100B300030803846BDE8FC812DE9FC4104460D4675
:100B400016466B4606224321682000F0E4F907466A
:100B5000BFB99DF801009DF8001040EA012000B2E5
:100B600020809DF803009DF8021040EA012000B2A9
:100B700028809DF805009DF8041040EA012000B28D
:100B800030803846BDE8FC8110B500200E49086071
:100B90000E48006820F070400C4908600846006864
:100BA00040F04050086000200949C1F89C0100F065
:100BB00011F801200449086000F00CF800200449F5
:100BC000C1F8980110BD000098812142000C01403D
:100BD0000080214210B5022001F08AF910BD00000A
:100BE00008B50121082000F093FAC020ADF80000FC
:100BF00010208DF8030003208DF802006946044898
:100C0000FFF75BFBC0210248FFF72AFC08BD00008C
:100C1000000C014010B500200E4908600E48006825
:100C200020F070400C4908600846006840F04050D1
:100C3000086001200949C1F89C01FFF7CBFF0120A2
:100C400004490860FFF7C6FF00200449C1F8980175
:100C500010BD000098812142000C0140008021421B
:100C600070B5054600241648006820F0704014490D
:100C700008600846006840F000400860002614E064
:100C8000002010490860FFF7A5FF01200E49C1F8B8
:100C900098016006040E0B487C38006808B1601C9F
:100CA000C4B2FFF797FF701CC6B2082EE8DB15B977
:100CB000FFF7B0FF01E0FFF767FF204670BD0000BF
:100CC000000C0140988121420080214270B5044609
:100CD0001248006820F0704010490860084600681B
:100CE00040F04050086000200D490860002512E0E7
:100CF000E0090B49091D08606006040E012009493E
:100D0000C1F89801FFF766FF002005490860FFF76A
:100D100061FF681CC5B2082DEADB70BD000C014004
:100D2000988121420080214210B50E48006820F0D1
:100D300070400C4908600846006840F04050086068
:100D40000120094908600949C1F89801FFF742FFED
:100D5000002005490860FFF73DFF00200349C1F866
:100D6000980110BD000C01409C812142008021426D
:100D700010B50E48006820F070400C490860084625
:100D8000006840F0405008600020094908600949A7
:100D9000C1F89C01FFF71EFF0120054908600549C5
:100DA000C1F89C01FFF716FF10BD0000000C0140C8
:100DB000988121420080214210B500241448006827
:100DC00020F07040124908600846006840F000407A
:100DD000086001200F490860FFF7FCFE01200E4962
:100DE000C1F89801FFF7F6FE07E0601CC4B2FA2CC8
:100DF00003DDFFF7BDFF012010BD06488038006805
:100E00000028F2D10349091F086000BFF4E7000081
:100E1000000C01409C8121420080214238B5012113
:100E2000084600F075F90121042000F071F94FF433
:100E30000040ADF8000010208DF8030003208DF86D
:100E4000020069462248FFF738FA01212148FFF7DE
:100E5000BFFA002020490860FFF7C2FE80216B2006
:100E600000F0DDF8642001F01DF800216B2000F097
:100E7000D6F8032000F091F8002000F086F8322028
:100E800000F0B0F80021382000F0C9F800216A20F5
:100E900000F0C5F80021232000F0C1F880213720A0
:100EA00000F0BDF8752000F019F80446682C0BD14D
:100EB00001216B2000F0B3F800216C2000F0AFF8A6
:100EC000322000F08FF801E0012038BD0020FCE75F
:100ED0000008014000023000BC01214270B5044608
:100EE000FFF722FFD020FFF7F1FEFFF765FF204656
:100EF000FFF7ECFEFFF760FFFFF716FFD120FFF7CB
:100F0000E5FEFFF759FF0020FFF7AAFE0546FFF7B1
:100F10002FFF284670BD2DE9F04106460F461446C6
:100F20001D46FFF701FF002141EA4601C8B2FFF765
:100F3000CDFEFFF741FF20B1FFF71AFF0120BDE80A
:100F4000F0813846FFF7C2FEFFF736FFFFF7ECFEF1
:100F5000012101EB4601C8B2FFF7B8FEFFF72CFFF5
:100F60000DE0012C04D10020FFF77AFE287003E089
:100F70000120FFF775FE2870601EC4B26D1C002CA6
:100F8000EFD1FFF7F5FE0020D9E710B50446E006E3
:100F9000010E1C2000F043F810BD10B50446E00619
:100FA000010E1B2000F03BF810BD70B50446002573
:100FB000BC2C01DB012510E0622C01DB02250CE0DA
:100FC0002A2C01DB032508E0142C01DB042504E0B6
:100FD0000A2C01DB052500E0062529461A2000F031
:100FE0001EF870BD70B50446B4F57A7F01DD4FF48C
:100FF0007A74042C00DA04244FF47A7090FBF4F035
:10100000401EC5B22946192000F009F805462646BB
:1010100004EBD671C1F34F00FFF7C7FF70BD70B589
:1010200005460C46FFF780FED020FFF74FFEFFF786
:10103000C3FE18B1FFF79CFE012070BD2846FFF7E4
:1010400045FEFFF7B9FE2046FFF740FEFFF7B4FE6E
:1010500018B1FFF78DFE0120EFE7FFF789FE0020B2
:10106000EBE700BFFEE7704770B5002100230F22B9
:10107000C47804B3154C246804F4E064C4F5E06457
:10108000210AC1F10403CA40447804FA03F18478C8
:101090001440214309010E4C0678A155047804F050
:1010A0001F050124AC4005786D11AD0005F1E02568
:1010B000C5F8004109E0047804F01F050124AC40A4
:1010C000044D0678761145F8264070BD0CED00E021
:1010D00000E400E080E100E002490143024A1160BF
:1010E000704700000000FA050CED00E070470000BA
:1010F00029B1064AD2690243044BDA6104E0034A8B
:10110000D2698243014BDA6170470000001002404F
:1011100029B1064A92690243044B9A6104E0034AEA
:1011200092698243014B9A617047000000100240AF
:1011300030B500210022002400232D4D6D6805F0FC
:101140000C0121B1042905D0082923D105E0294D3E
:10115000056022E0274D05601FE0254D6D6805F410
:101160007012234D6D6805F48034022505EB924220
:101170001CB9214D554305600BE01D4D6D6805F40C
:1011800000351DB11C4D5543056002E0194D554316
:10119000056002E0174D056000BF00BF144D6D688B
:1011A00005F0F0010909154D6B5C0568DD404560EF
:1011B0000F4D6D6805F4E061090A104D6B5C4568E0
:1011C000DD4085600A4D6D6805F46051C90A0B4D1C
:1011D0006B5C4568DD40C560054D6D6805F44041B8
:1011E000890B074D6B5CC568B5FBF3F5056130BD38
:1011F0000010024000127A0000093D003C0000206F
:101200004C000020704710B500F002F810BD00003F
:101210000CB50020019000903348006840F4803005
:101220003149086000BF3048006800F40030009089
:101230000198401C0190009818B90198B0F5A06F72
:10124000F1D12948006800F4003010B1012000906D
:1012500001E0002000900098012843D12348006855
:1012600040F01000214908600846006820F00300A3
:1012700008600846006840F0020008601A484068AC
:10128000194948600846406848600846406840F48C
:10129000806048600846406820F47C10486008463A
:1012A000406840F4E81048600846006840F08070EC
:1012B000086000BF0C48006800F000700028F9D0FA
:1012C0000948406820F00300074948600846406824
:1012D00040F00200486000BF0348406800F00C0086
:1012E0000828F9D10CBD0000001002400020024087
:1012F000042808D14FF0E021096941F004014FF0C2
:10130000E022116107E04FF0E021096921F00401BA
:101310004FF0E022116170477047000010B513488C
:10132000006840F001001149086008464068104913
:1013300008400E494860084600680E4908400B49BD
:1013400008600846006820F480200860084640686D
:1013500020F4FE0048604FF41F008860FFF753FF41
:101360004FF000600449086010BD0000001002400A
:101370000000FFF8FFFFF6FE08ED00E010B50121C8
:10138000084800F056F860B10121064800F042F824
:1013900005490648FFF766F8054A03490348FFF781
:1013A000DFF810BD000400405C0000205000002069
:1013B000680000207FB505460C4601210220FFF79A
:1013C00097FEADF80850ADF804400020ADF80A00D3
:1013D000ADF8060001A90E4800F046F801221146BA
:1013E0000B4800F037F81D208DF8000000208DF824
:1013F000010003208DF8020001208DF803006846EB
:10140000FFF732FE0121024800F007F87FBD00001F
:1014100000040040CA430282704721B1028842F0B2
:101420000102028004E002884FF6FE731A40028037
:10143000704730B50246002000230024158A05EAD3
:101440000103958905EA010413B10CB1012000E004
:10145000002030BD1AB183890B43838102E0838968
:101460008B43838170470000002202881D4B984205
:101470000ED01D4B98420BD0B0F1804F08D01B4BC3
:10148000984205D01A4B984202D01A4B984204D188
:101490004FF68F731A404B881A43174B984207D068
:1014A000164B984204D04FF6FF431A40CB881A439C
:1014B00002808B8883850B8803850A4B98420BD06A
:1014C000094B984208D00E4B984205D00D4B9842DC
:1014D00002D00D4B984201D10B7A038601238382FF
:1014E00070470000002C014000340140000400401F
:1014F00000080040000C00400010004000140040B4
:1015000000400140004401400048014010B540F255
:1015100025511D4800F057F810B31B4800F00EF994
:10152000C4B21A48008800F40040C8B917480088BF
:1015300000F4804060B10A2C03D0002013490880D9
:1015400020E01248008840F400401049088019E06B
:101550000D2C06D10D48008840F480400B490880CE
:1015600010E00A480088C0F30D0009490C540748F0
:101570000088401C0549088008460088C72801DD0E
:101580000020088010BD0000003801401C00002031
:101590007400002021B1828942F40052828104E06B
:1015A00082894DF6FF731A408281704702460020FF
:1015B000B1F5007F00D100BF13880B400BB10120B3
:1015C00000E00020704770B502460024002300258B
:1015D000002040F66A16B14200D100BFC1F34215A7
:1015E00001F01F03012606FA03F3012D02D19689AB
:1015F000334006E0022D02D1168A334001E0968A7C
:1016000033400C12012606FA04F41688344013B154
:101610000CB1012000E0002070BDF0B503460024AD
:1016200000260025002040F66A17B94200D100BF0D
:101630001846C1F3421401F01F06012707FA06F508
:10164000012C01D10C3004E0022C01D1103000E05B
:1016500014301AB107682F43076002E00768AF43F0
:101660000760F0BD2DE9F04786B005460E46002420
:10167000A24600BFA1460027B08900B100BF2F4697
:101680002C8A4CF6FF700440F08804432C82AC890D
:101690004EF6F3100440B08831890843718908433D
:1016A0000443AC81AC8A4FF6FF400440B089044348
:1016B000AC8201A8FFF73CFD1F48874202D1DDF84C
:1016C00010A001E0DDF80CA0A88900F4004040B1B2
:1016D0000AEBCA0000EB0A1031684900B0FBF1F8D0
:1016E00007E00AEBCA0000EB0A1031688900B0FB82
:1016F000F1F86420B8FBF0F004012009642101FB3B
:101700001089A88900F4004040B1322000EBC900E4
:10171000B0FBF1F000F00700044308E0322000EBDA
:1017200009106421B0FBF1F000F00F0004432C819C
:1017300006B0BDE8F0870000003801400146888807
:10174000C0F308007047C1F308028280704700BFF1
:10175000FEE7490050EAC12018BF04204A0D18BF17
:1017600040F0010040F2FF72B2EB515F08BF40F061
:101770000200012808BF052070472DE9F0414F1EE7
:1017800000EBC7010446D1E9000115461E4637F0BB
:1017900006020DD02A46334600F03EFF7F1E04EBC2
:1017A000C703D3E9002300F017FD37F00602F1D19B
:1017B000022F25D0042F13D0062F18BFBDE8F081CB
:1017C0002A46334600F028FFD4E90A2300F004FD3E
:1017D0002A46334600F020FFD4E9082300F0FCFC41
:1017E0002A46334600F018FFD4E9062300F0F4FC43
:1017F0002A46334600F010FFD4E9042300F0ECFC45
:101800002A46334600F008FFD4E9022300F0E4FC46
:101810002A46334600F000FFD4E90023BDE8F0413A
:1018200000F0DABC012201F0F4BB00F0D5BC0022CC
:1018300013461046114600F07FBD0000024A00200A
:10184000110701F0E6BB000001FDFFFF00BF70477C
:101850002DE9F04D8D4F21F0004A86B005460C462B
:10186000BA452ADBAAEB070028430AD088488245FC
:1018700001DC1AD1CDB106B02846BDE8F04DFFF726
:10188000D1BF844A844B284600F0C6FE07460E4668
:10189000824A834B2846214600F0BEFE06B03A46F7
:1018A0003346BDE8F04D00F097BC0120FEF7B8FCD0
:1018B00006B0BDE8F04DFFF7BABF7A48824542DA7C
:1018C000BAF1795F0BDA2846FFF743FF042808BF17
:1018D000FFF7B4FF284606B02146BDE8F08D2A4642
:1018E0000B46104600F098FE834602466E480E46B0
:1018F0000B4606217844FFF740FF5A46334600F076
:101900008BFE804669488A465A463346042178440D
:10191000FFF733FF5A46334600F07EFE00223B4677
:1019200000F05AFC02460B464046514600F004FDCA
:101930002A46234600F070FE06B02A462346BDE83C
:10194000F04D00F049BC284624F0004100223D46FD
:101950003B4600F05FFF4FF0FF3201F05AFB0646B6
:10196000024653480F460B4606217844FFF705FF11
:1019700032463B4600F050FECDE900014D4832466C
:101980003B4604217844FFF7F8FE32463B4600F020
:1019900043FE00222B4600F01FFC83460291304696
:1019A000394600F071FB804643480D46504517DC30
:1019B000DDE900015A46029B00F0BEFC42462B4680
:1019C00000F02AFE42462B4600F006FC012201F000
:1019D00020FB304A304B01F00FF8304A304B4CE0DE
:1019E0004FF0000A52460B46404600F0F5FBCDE9A9
:1019F000031052462B461046194600F00DFE3246A3
:101A00003B4600F007FFDDE9033200F095FC064697
:101A10000F46DDE900015A46029B00F08DFC83462B
:101A2000009101223046394601F0F3FA194A1A4B67
:101A300000F0F0FE06460F4601224046294601F01E
:101A4000E8FA5A46009B00F0E7FD32463B4600F0BC
:101A5000D3FF06460F4601225046294601F0D9FA27
:101A60000E4DDFF858802A46434600F0D3FE32463A
:101A70003B4600F0CFFE2A46434600F0CBFE002C4A
:101A8000D8BF81F0004106B0BDE8F08D0000F03F06
:101A90000000F07F075C143326A6913C182D4454B7
:101AA000FB21F93F0000E03FA8170000BE1700002F
:101AB00032170000481700003333EF3FFB21E93FA6
:101AC0002DE9F84F04460D4621F00040009173497E
:101AD000814211DC7249884201DC06D12CB12046DA
:101AE0002946BDE8F84FFFF79DBE6E48002DCCBFDC
:101AF0006D496E49BDE8F88F6D49814211DD6D4930
:101B00008142D8BF4FF0FF366DDD20462946FFF7F2
:101B100020FE042808BFFFF791FE20462946BDE8B5
:101B2000F88F6549654F25F00045814233DD6449F2
:101B3000814219DD002632464FF080432046294677
:101B400000F04AFB80468A4601222046294601F0E1
:101B500060FA00223B4600F04FFF4246534600F039
:101B6000EBFB04460D463EE001260022BA463B460A
:101B70002046294600F030FB80460F46002253469F
:101B80002046294600F038FF42463B4600F0D4FB91
:101B900004460D4627E04B4981421BDDDFF828A1B2
:101BA0000226002253462046294600F035FD002239
:101BB0003B4600F011FB80460F460022534620466C
:101BC000294600F019FF42463B4600F0B5FB0446AB
:101BD0000D4608E0032622462B4600203B4900F034
:101BE000ABFB04460D4622462B461046194600F034
:101BF00013FD8B46824602460B4600F00DFD07465C
:101C00000246334888460B4606217844FFF7B5FD67
:101C100052465B4600F000FD82462E488B463A460F
:101C2000434605217844FFF7A8FD3A46434600F0B5
:101C3000F3FC02460B46002E504659460CDA00F0E3
:101C4000CBFA22462B4600F0E7FC01B022462B4699
:101C5000BDE8F04F00F0DEBD00F0BEFA22462B4694
:101C600000F0DAFC1C4A7A4402EBC603D3E90023F5
:101C700000F0C2FE22462B4600F0BEFE174A7A4410
:101C800002EBC603D3E9002300F0C4FD009A002A4A
:101C9000B8BF81F00041BDE8F88F0000000010449B
:101CA0000000F07F182D4454FB21F93FFB21F9BFC0
:101CB0000000DC3F0000203E0000F33F0000F03F4A
:101CC0000000E63F008003400000F83F0000F0BF46
:101CD0004A15000008150000A61400006E1400004C
:101CE0002DE9F04D9446CCF1000423F000464CEA77
:101CF0000404524F46EAD4749A46884621F00042C2
:101D0000BC4206D8454240EA050442EAD474BC42CB
:101D100004D9BDE8F04D6246FFF787BDAAF14055F2
:101D2000A5F17F6555EA0C040BD0022404EAAA74DD
:101D3000434DDFF810E144EAD87452EA000B04D0B6
:101D40000CE0BDE8F04DFFF7BBBE002C14BF012C2A
:101D5000BDE8F08D022C30D0032C32D056EA0C0BAB
:101D60000AD0BE4220D1BA4209D126F0804622F0E4
:101D700080423346114617E000291ADB25E0DFF8E0
:101D8000C8B0FB44002C04BFDBE90001BDE8F08DC6
:101D9000012C02BFDBE9000181F00041BDE8F08DBC
:101DA000022C0AD0032C0CD0BA4212D1B8F1000F89
:101DB0000BDA23482549BDE8F08D28462449BDE8C3
:101DC000F08D28467146BDE8F08D1D482149BDE8DB
:101DD000F08D921B12153C2AC4BF19481D490EDC18
:101DE000BAF1000FBEBF12F13C0F0020014606DB26
:101DF000624600F0A1FA21F00041FFF761FE002CDD
:101E000008BFBDE8F08D012C04BF81F00041BDE8A2
:101E1000F08D114A114B022C07D000F0EDFD2A463F
:101E2000BDE8F04D0A4B00F0E7BD00F0E5FD2A46A5
:101E3000BDE8F04D064B00F0EDBC00000000F07F67
:101E4000182D4454FB2109C002140000FB21F9BFE6
:101E5000FB210940FB21F93F075C143326A6A13C76
:101E600010B56FF00400FFF743FA0A4800680A490A
:101E7000B0FBF1F0094908700846007800EB40011A
:101E8000C1EBC0104FF6FF7101EAC00004490880A1
:101E900010BD00000000002000127A001400002095
:101EA000160000200146114A12884A434FF0E023F1
:101EB0005A6100229A611A46126942F001021A61BF
:101EC00000BF4FF0E022106900F001021AB100F4E7
:101ED0008032002AF5D04FF0E022126922F0010290
:101EE0004FF0E0231A6100229A617047160000202B
:101EF0000146114A12784A434FF0E0235A6100220A
:101F00009A611A46126942F001021A6100BF4FF04D
:101F1000E022106900F001021AB100F48032002AB8
:101F2000F5D04FF0E022126922F001024FF0E023D9
:101F30001A6100229A617047140000202DE9F047D1
:101F400004464FF07C51204600F0E6FE81462546CF
:101F50002E460C48A0EB660635462946484600F05A
:101F6000DBFE8246294600F0D7FE80464FF07F51C7
:101F700000F09EFF0746294600F0CEFE05462846A3
:101F8000BDE8F087DF59375F1CB5002400200190C1
:101F900000904FF4A060FFF79FF8FFF761FF4FF448
:101FA000E13000F097F8FEF779FDFEF737FF41F6D4
:101FB0001F411320FFF7FEF961E03149086801A9CC
:101FC000FEF76DF900240DE001A8015D2D48FFF733
:101FD000BAFB00BF40212B48FFF7E8FA0128F9D1EE
:101FE000601CC4B2042CEFDB2549486801A9FEF748
:101FF00056F900240DE001A8015D2248FFF7A3FB7C
:1020000000BF40211F48FFF7D1FA0128F9D1601C19
:10201000C4B2042CEFDB1A49886801A9FEF73FF926
:1020200000240DE001A8015D1648FFF78CFB00BFFE
:1020300040211448FFF7BAFA0128F9D1601CC4B254
:10204000042CEFDB00208DF800008DF801008020CB
:102050008DF802007F208DF8030000240DE01DF8AC
:1020600004100848FFF76FFB00BF40210548FFF749
:102070009DFA0128F9D1601CC4B2042CEFDB9CE767
:1020800068000020003801402DE9F04106460F4667
:1020900000F0CCFB041E0D4618BF0120284320F0A1
:1020A0000040C0F17F6000F1E040C00F0ED0301C56
:1020B00018BF0120384320F00040C0F17F6000F1DC
:1020C000E040C00F04BF0120FEF7AAF820462946D1
:1020D000BDE8F08110B586B00446012144F2040049
:1020E000FFF716F84FF40070ADF8140003208DF8D8
:1020F000160018208DF8170005A91C48FEF7DDF81A
:102100004FF48060ADF8140004208DF8170005A985
:102110001648FEF7D2F825208DF8000003208DF830
:1021200001008DF8020001208DF803006846FEF7DB
:102130009BFF01940020ADF80800ADF80A00ADF84F
:102140000C00ADF810000C20ADF80E0001A90848F5
:10215000FFF788FA012240F225510548FFF75DFAA2
:1021600001210348FFF716FA06B010BD0008014030
:102170000038014021F00042A2F16052B2F5801F08
:1021800001F0004328BFD2F17F6C0BD95FEA001C3D
:1021900043EAC20242EB507018BF704728BF20F0DC
:1021A00001007047B2F5801FBCBF184670474FEA68
:1021B000410C1CF5001F02D2084600F074BE70B539
:1021C00000F0D4FA00000089FFF7F6BF4FF000409E
:1021D000A0F580007047000010B591EA030F48BFDA
:1021E00083F0004300F11084841A71EB030C05D2D4
:1021F000121943EB0C03001B61EB0C01DFF824E127
:102200004FEA1154A4EB135C1EEA430F18BF9EEA79
:10221000445F73D023EA0E03DCF1200E21EA04515F
:1022200043F4801332D322FA0CFE10EB0E0023FA93
:102230000CFE41EB0E01CCF1200E03FA0EFE10EB6A
:102240000E0051F10001B1F5801FCCF1200E32D209
:1022500001EB045112FA0EF2BDE8104058BF70476E
:10226000401C38BF5FEA420218BF7047002814BF05
:1022700020F0010041F100014FEA410313F5001F76
:1022800038BF7047A1F1C04100F0BEBA012A43EB4C
:102290000302ACF1200CDCF11F0E32BF4FF0000E38
:1022A00023FA0CF310EB030041EB0451B4EB115F84
:1022B000D0D0A1EB045101F5801149085FEA30004C
:1022C00001EB04510ED350F1000038BF12FA0EFE9C
:1022D00008D1BDE81040C9E7401C38BF5FEA4202A0
:1022E000CAD1C3E7BDE810404FEA410313F5001F10
:1022F00038BF7047A1F1C04100F086BA9EEA445F42
:1023000008D011EA5E0FBDE8104004BF01F00041A3
:1023100000207047BDE8104070B500F027FA00BFFC
:1023200064FBBE3E0000E0FF02494FF0000000F0F9
:102330003EBE00BF0000F87F2DE9C04130B4DFF899
:10234000A0C23CEA111418BF3CEA131400F0EC8060
:1023500081EA03051CEA111444EAD57418BF1CEA8B
:10236000131500F0C780A4EB05044FF0004545EAC3
:10237000C12145EAC32341EA505143EA525304F1D3
:102380007F74994204F500344FEAC0204FEAC2221C
:1023900008BF904200F09C804FEA13650FF2401690
:1023A000765D4FEA134506FB05F7C7F1807706FB1C
:1023B00007F74FEAD737A7FB03687642C8F580389E
:1023C000A7FB06CE38BFA8F1010807FB08E64FF0CF
:1023D000000EA6FB028CE6FB03CEDCF1000CCEF176
:1023E000004E38BFAEF1010EA6FB0C584FF00007AF
:1023F0004FF00005E6FB0E87A1FB08C6A0FB07CE49
:1024000016EB0E0645F10005E1FB076515F1E04E00
:102410007EBFA4F580345FEA46066D4116F1800761
:1024200045F100054FEA17274FEA066647EA0567B8
:10243000A6F1DE46B6F1805F4FEA15251FD9384672
:1024400024F0010C05EBC471BCF1FE6F01EB0C1123
:1024500002D8F0BCBDE8008124425CBF01F5801EBB
:102460009EEAC47F02D4F0BCBDE80081244238D487
:10247000F0BCA1F1C041BDE8004100F0C5B94FEA90
:10248000D22242EA43524FEAD323A7FB02864FEA05
:10249000D02040EA415007FB03661EEA0E0F4FEAC8
:1024A000D12105FB026658BFA6EB0056B6EB0056DD
:1024B0004FEA520E4EEAC37E18EB0E0E56EB530E49
:1024C000BDD518EB02085E417F1C55F10005B6E74B
:1024D0004FF480154FF000074FF000064FF0000852
:1024E000ADE7F0BC4FF0000001F1C04101F0004148
:1024F000BDE8008111EA0C1F0CEA131500D00CE0B6
:1025000013EA0C1F00F025804FF00000F0BC81EAB8
:10251000030101F00041BDE80081F0BCBDE80041CD
:1025200081EA030100F070B9F0BCBDE8004170B56C
:1025300000F01CF9097EFC3E00F007B881EA0301B7
:102540004FF0000001F00041704781EA030100F004
:102550005BB9F0BCBDE800414FF000002149704775
:10256000FFFDFBF9F7F5F4F2F0EEEDEBE9E8E6E458
:10257000E3E1E0DEDDDBDAD8D7D5D4D3D1D0CFCDDF
:10258000CCCBCAC8C7C6C5C4C2C1C0BFBEBDBCBB18
:10259000BAB9B8B7B6B5B4B3B2B1B0AFAEADACAB13
:1025A000AAA9A8A8A7A6A5A4A3A3A2A1A09F9F9EED
:1025B0009D9C9C9B9A99999897979695959493939F
:1025C000929191908F8F8E8E8D8C8C8B8B8A898936
:1025D00088888787868585848483838282818180B9
:1025E0000000FF070000F87F10F0004248BF4042A3
:1025F000B0FA80F310FA03F10AD0C3F11D0303F51A
:1026000080634FEA415002EB035202EBD121704745
:102610004FF0000070470000DFF848C170B51CEAB9
:10262000111E1EBF1CEA13159EEA0C0F95EA0C0F33
:1026300000F06F8081EA030423EA4C134EEAD47E53
:1026400021EA4C1141F4801143F48013AE44A1FB04
:10265000024CA0FB0365AEF17F7E361955EB0C05ED
:10266000A1FB034C4CF10003A0FB021C16EB0C0673
:10267000654153F10003094218BF46F0010613F407
:10268000007F0BD14FEA03314FEA0530340341EAB2
:10269000155140EA16506FF003020AE04FEAC321D9
:1026A0004FEAC520F40241EA555140EA56506FF016
:1026B000020202EB2E4201EB025585EACE710AD0EE
:1026C0005FEA440C18BF24F0004450F1000041F1CF
:1026D000000120EAD47040F2FE7C624500D270BD59
:1026E000A84214BF4FF080444FF04044002E08BF72
:1026F0000024BEF1806FA8BFA1F1C041BDE87040C9
:1027000080F282804FF0000001F1C04101F00041F1
:1027100070479EEA0C0F0CEA131518BF95EA0C0FD0
:1027200006D04FF0000081EA030E0EF0004170BDAC
:1027300000F01CF88900013E00F007B800F009B86D
:102740004FEA430C5FEA5C5C08D081EA030100F0C9
:102750005BB84FEA410C5FEA5C5CF6D14FF00000D9
:10276000014970470000FF070000F87F0EF1020EDC
:102770002EF0030E5EF8046B364205D4012A43EBBB
:10278000030515F5001F12D8012841EB010C1CF5BB
:10279000001F0CD80ED14FEAD17C15F5001F0CEBB1
:1027A0004C0C0CF1020C08BF4CEBD37C04E04FF056
:1027B000080C01E04FEAD37C0CEB4C0526FA05F639
:1027C00006F00706B6F1040C06D20EEB860CBDE847
:1027D00070404CF0010C6047DFE80CF0090B02027E
:1027E0004FF000414FF00000A1F5002170BD1946E7
:1027F0001046012851EB010418BFD4F5001484BF22
:10280000002001F0004170BD0808A0F500114FEA5A
:102810003101704791EA030F10B581F000413FF597
:10282000E3AC83F0004300F0EFB800002DE9F04185
:1028300001F5801CBCF5001FC0F2C3804FEA115C9B
:1028400021EA0C510CF1FD0C41F480115FEA5C0CA3
:102850000CF5C07C01D3400049413DA4890241EA06
:10286000905187028E0E0A0CA45D04FB04F602FB55
:1028700006F6C6F14046A4FB0662F60D46EA42267D
:1028800006FB06F4A4FB01235242C3F1404338BFC8
:102890005B1EA6FB02420024E6FB0324D20B42EAA5
:1028A0004446A6FB0623A1FB02E2A3FB07E4A4180F
:1028B0004FF0000252F10002E3FB01426442C2F118
:1028C000404E38BFAEF1010EA6FB04234FF00002CC
:1028D000E6FB0E32A2FB03464FF00004B61954F19A
:1028E0000004E2FB0264A1FB06E6A4FB07E816EB8A
:1028F00008064FF0000858F10008E4FB0168764232
:10290000C8F1405838BFA8F10108A2FB06E4A3FBB8
:1029100008E52D194FF0000454F10004E2FB0854BF
:10292000A1FB05E6A7FB04E818EB06084FF000063C
:1029300056F10006E1FB048618F1200556F1000669
:10294000A809A8F11B08B10908F03F08B8F10A0F5F
:1029500040EA86601CD901EB0C51BDE8F08100BF54
:10296000FCF5EEE8E2DDD8D3CFCBC7C3C0BDB9B626
:10297000B4B1AEACA9A7A5A3A19F9D9B9A9896952B
:102980009392908F8D8C8B898887868584838281B2
:10299000A0FB006800FB01F208EB4208B8EB8728B7
:1029A00007D5341858EB0104D5D5401C51F100016E
:1029B000D1E7341A78EB0104CDD4401E71F1000147
:1029C000C9E75FEA4C0C5FEA9C5C0DD105D34FF080
:1029D000000001F00041BDE8F081BDE8F04170B5B4
:1029E000FFF7C4FE6DDBFFBEBDE8F0414FF0000015
:1029F000004970470000F87F10B591EA030F48BF07
:102A000083F000433FF5F0AB841A71EB030C07D25F
:102A100012198CF0004C43EB0C03001B61EB0C0112
:102A2000DFF8A4E14FEA1154A4EB135C1EEA430F54
:102A300018BF9EEA445F00F0B08023EA6E03524262
:102A400021EA0451C3EB6E0338BF5B1EDCF1200E9C
:102A500025D322FA0CFE10EB0E0043FA0CFE41EBDC
:102A60000E01CCF1200E03FA0EFE10EB0E0051F118
:102A70000001CCF1200E29D412FA0EF201EB045120
:102A8000BDE8104058BF7047401C1CBFB2F1004F5A
:102A9000704700280CBF491C20F00100704712EB62
:102AA000020E43EB030218BF4FF0010E4EEA420242
:102AB000ACF1200CDCF11E0E54D943FA0CFE10EBE5
:102AC0000E0051F1FF31CCF11E0ED5D50EF1010EE5
:102AD00012FA0EFE404141EB010101EB445C5FEA5A
:102AE0005C5C10D910EBDE7001EB045138BFBEF115
:102AF000004FBDE8104018BF704700280CBF491CAC
:102B000020F00100704730D24FEAD42C11F50011AB
:102B100024F400641BD0B1FA81F20B3AA41AA41E6B
:102B2000D2F12003914030FA03F31943904001EBB6
:102B3000CC71002C01EB0451BDE81040A8BF7047D8
:102B400001F1C0414FF0000001F000417047B0FAC0
:102B500080F310FA03F100D110BDE41A173C4805C8
:102B6000C90AE4E701EB045110BD491001EB04511F
:102B7000BDE810404FEA300002E04FF0000170471E
:102B80004A0008BF0042F8D0B2F5001F28BF7047C6
:102B900001F000414FF0000070479EEA445F07D00B
:102BA00011EA5E0FBDE8104004BF0021002070470D
:102BB000BDE8104070B5FFF7D9FD00BF40DFF63E1D
:102BC00083F00041104670470000E0FF43004FEAE9
:102BD000D30C4FEA3C0C43401FBF40070CF160513F
:102BE00013F0FE4F70471CF0006F03D100200CF073
:102BF000004170470CF0004343EA507010B540EAC2
:102C0000CC0000F00AF900BF000000924FEA00017A
:102C1000FFF7FABD4FF000414FF00000A1F5002191
:102C20007047000090EA010F48BF81F0004100F1B9
:102C30005081421A3CBF801A89184FEAD0524FF097
:102C40007F4C1CEA410FA2EBD15318BF9CEA026FE4
:102C500000F03B804FF0004C4CEA00204CEA012190
:102C600021FA03FC10EB0C0C1ED202F1FF325FEADA
:102C70001C2040EBC25038BF70471CF07F0F4FEA5A
:102C8000400C18BFBCF17F4F38BF7047C3F1200321
:102C9000994008BF20F00100BCF17F4F38BF70475A
:102CA000A0F1C04000F0FFB84FEA3C00000A40EB42
:102CB000C25028BF1CF0FF0F4FEA400CE6D018BFEF
:102CC000BCF17F4F38BF7047EAE79CEA026F05D03E
:102CD00010EA5C0F08BF00F00040704710B500F02C
:102CE0009CF800BF64FBBE3E10F0004148BF40426C
:102CF000B0FA80F310FA03F2C3F19D030BD051EA4E
:102D0000C35101EB1220530638BF704700F1010098
:102D100008BF20F0010070474FF47F0C1CEAD0126E
:102D20001EBF1CEAD11392EA0C0F93EA0C0F00F0BD
:102D3000478090EA010F48BF42F480724FF0004C88
:102D40004CEA00204CEA012102EB0302A0FB011334
:102D5000A2F50002002918BF43F001035B0028BF61
:102D60004FEA330342EB22425FEA132C4CEBC25092
:102D70002EBFBCEB436FB2F57C0F70474FEA036C7C
:102D8000BCF1004F08BF20F00100B2F57C0F38BF46
:102D900070470BD582F0FF0212F5803FC8BF704725
:102DA00000F1C040D8BF00F00040704700F5000CB3
:102DB0005FEA4C0C48BF7047B0F1C04000F073B8F8
:102DC00090EA010F0CEAD11348BF42F480726245C9
:102DD00038BF634504D280EA010000F0004070472C
:102DE00010B500F01AF800BF8900013E00F007B8E6
:102DF00000F009B85FEA410C5FEA1C6C08D080EA79
:102E0000010000F050B85FEA400C5FEA1C6CF6D19C
:102E10004FF00040A0F5800070470EF1020E2EF03A
:102E2000030E5EF8044B244204D44FEA4102B2F18F
:102E30007F4F11D84FEA4003B3F17F4F0CD80ED12A
:102E40004FEAD07CB2F17F4F0CEB4C0C0CF1020C32
:102E500008BF4CEBD17C04E04FF0080C01E04FEAD6
:102E6000D17C0CEB4C0324FA03F404F00704B4F116
:102E7000040C06D20EEB840CBDE810404CF0010CA3
:102E80006047DFE80CF0070802024FF00040A0F5B1
:102E9000800010BD0846420018BFD2F1807288BF82
:102EA00000F0004010BDFF2141EAD050C00570473E
:102EB00080F0004090EA010F7FF5BBAE81F0004149
:102EC00000F007B890EA010F48BF81F000413FF5DC
:102ED000B0AE421A04D882F00042A0EB02001144C6
:102EE0004FEAD0524FF07F4C1CEA410FA2EBD15376
:102EF00018BF9CEA026F4AD04FF0004C4CEA002009
:102F00004CEA012121FA03FCB0EB0C0C0FD412F0B7
:102F1000FE0F36D05FEA4C001DD5001240EBC250C8
:102F200038BF70471CF03F0F18BF70470BE0A2F18D
:102F300001025FEA1C2040EBC25038BF70471CF012
:102F40007F0F18BF7047C3F12003994014BF401E84
:102F500020F00100704780084FEA122308BF704735
:102F6000B0FA80FCA2EB0C02CCF1280C60FA0CF059
:102F700093EA122F04BF00EBC25070474FEAC370B0
:102F80007047130A5FEADC1008BF7047F6E79CEA57
:102F9000026F04D010EA5C0F08BF0020704710B524
:102FA000FFF73BFF40DFF63E81F0004070470CF03A
:102FB0000F03092B08BF082000F059800A2B0BD003
:102FC000082B18BF704708BF1CF0400F0AD04FF005
:102FD00000004FF0000170471CF0400F18BF4FF089
:102FE000004070471CF0100F08D020F0704300F034
:102FF0007F4242EAD3014FEA4370704700F06040DD
:1030000021F07F4242EA000201F07F4040EA727004
:1030100070474FF0FF0C4CF4E06C1CEA11531CBFDE
:103020009CEA030C9445C2BFDA4201EB025170479F
:10303000002B0DD0BCF1000F0FD0002A01F0004191
:10304000A4BF41F0E04141F07F614FF000007047C4
:1030500001F000414FF00000704750EA01334FF09B
:103060009B0C18BF4CF0806C7FF45EA970471CF479
:10307000801F11D01CF4E02F03D06FEACC3149003F
:1030800070474FF04050EFF3008222F0704242EA66
:10309000000282F3008870474FF000007047000084
:1030A000555555555555C53F7D6FEB0312D6D4BFC9
:1030B0005544880E55C1C93F3B8F68B52882A4BFCF
:1030C00088B20175E0EF493F09F7FD0DE13D023F90
:1030D0004B2D8A1C273A03C0C88A599CE52A004018
:1030E00059018D1B6C06E6BF82922EB1C5B8B33F65
:1030F0004FBB610567ACDD3F182D4454FB21E93F10
:103100009BF681D20B73EF3F182D4454FB21F93FFE
:10311000E2652F227F2B7A3C075C143326A6813C84
:10312000BDCBF07A8807703C075C143326A6913C2F
:10313000C4EB98999999C9BF711623FEC671BCBF9B
:103140006D9A74AFF2B0B3BF9AFDDE522DDEADBF03
:103150002F6C6A2C44B4A2BF0D5555555555D53F1B
:10316000FF8300922449C23F6E204CC5CD45B73F36
:10317000513DD0A0660DB13FEB0D76244B7BA93FAE
:1031800011DA22E33AAD903F000000000000000099
:10319000B031000800000020500000006C01000861
:1031A000003200085000002050070000880100088D
:1031B00000A24A0400000000000000000102030415
:1031C00006070809000000000000000000000000E1
:1031D0000000803F00000000000000000000000030
:1031E00000000000000000000000000000000000DF
:1031F0000102030401020304060708090204060889
:04000005080001CD21
:00000001FF
